S02B000043616C6962726174696F6E204F66204C6F616463656C6C2050726F70657220436F64652E7372656349
S11300000C94C1000C94E0000C94E0000C94E0000B
S11300100C94E0000C94E0000C94E0000C94E000DC
S11300200C94E0000C94E0000C94E0000C94E000CC
S11300300C94E0000C94E0000C94E0000C94E000BC
S11300400C94E0000C94E0000C94E0000C94E000AC
S11300500C94E0000C94E0000C94E0000C94E0009C
S11300600C94E0000C94E0000C94E0000C94E0008C
S11300700C94E0000C943A020C94E0000C94E00020
S11300800C94E0000C94E0000C94E0000C94E0006C
S11300900C94E0000C94E0000C94E0000C94E0005C
S11300A00C94E0000C94E0000C94E0000C94E0004C
S11300B00C94E0000C94E0000C94E0000C94E0003C
S11300C00C94E0000C94E0000C94E0000C94E0002C
S11300D00C94E0000C94E0000C94E0000C94E0001C
S11300E00C94E0000C94E0000C94E0000C94E0000C
S11300F00C94E0000C94E0000C94E0000C94E000FC
S113010007634236B79BD8A71A39685618AEBAABFC
S1130110558C1D3CB7CC5763BD6DEDFD753EF61790
S11301207231BF000000803F08000000BE922449E5
S1130130123EABAAAA2ABECDCCCC4C3E0000008015
S1130140BEABAAAAAA3E00000000BF000000803F88
S11301500000000000084178D3BB4387D1133D1948
S11301600E3CC3BD4282AD2B3E68EC8276BED98F75
S1130170E1A93E4C80EFFFBE01C4FF7F3F000000B9
S1130180000011241FBECFEFCDBFDFE7DEBF10E4B8
S1130190A0E0B0E4ECE4FEE000E00BBF02C0079096
S11301A00D92A836B107D9F720E4A8E6B0E401C05F
S11301B01D92AC3AB207E1F70E94B5020C942407F1
S11301C00C9400006150710920E030E00EC0DC01A5
S11301D0A20FB31F4C91FC01E60FF71F50815C93F3
S11301E040832F5F3F4F61507109261737077CF317
S11301F00895CF92DF92EF92FF920F931F93CF93C4
S1130200DF938A016901C0E0D0E011C07801EC0EEF
S1130210FD1E2AE030E040E050E00E94E306605D0D
S1130220F7016083622F732F842F952F2196611518
S113023071058105910551F706C0F801EC0FFD1F0A
S113024080E380832196CC15DD05BCF3BE01C80193
S11302500E94E200F801EC0FFD1F1082CE01DF9135
S1130260CF911F910F91FF90EF90DF90CF90089561
S11302708F929F92AF92BF92CF92DF92EF92FF92B2
S11302800F931F93CF93DF934B015C018A01E90124
S11302900E9404046B01770FEE08FF08C701B60142
S11302A00E943C049B01AC01C501B4010E942503DA
S11302B04B015C0120E030E0A801C701B6010E94B7
S11302C0F9007C01209749F1F801E80FF91F8EE24B
S11302D08083BE010D2E000C880B990B0E943C04F8
S11302E09B01AC0160E070E080E291E40E945E0555
S11302F09B01AC01C501B4010E94F1042FEFE21A85
S1130300F20A0E940404A8014E0D5F1D072E000C82
S1130310880B990B9E010E94F900DF91CF911F91E8
S11303200F91FF90EF90DF90CF90BF90AF909F9090
S11303308F900895E0E4F4E020812D7F20832081D4
S113034021602083BC0180E090E00E943A0420E018
S113035030E040E851E40E94F1049B01AC0160E00C
S113036074E284E79DE40E94920320E030E040E0E0
S11303705FE30E9426030E940B04E0E2F8E060873A
S113038071878681806C868308959091240895FFF7
S1130390FCCF8093220808950F931F93CF93DF938C
S11303A08C01C0E0D0E007C0F801EC0FFD1F808194
S11303B00E94C5012196F80101900020E9F73197C8
S11303C0E01BF10BCE17DF0778F38AE00E94C5012A
S11303D0DF91CF911F910F91089520E030E046E71F
S11303E050E40E94F90086E790E40E94CC0108954D
S11303F09A0146E750E40E94380186E790E40E949F
S1130400CC010895E0E0F4E08481877F84838091C7
S1130410080482FDFCCF90E040E050E0BA011CC02B
S1130420E0E0F4E084818860848326E02A95F1F793
S113043000C0440F551F661F771F8481877F848304
S113044086E08A95F1F700C0808582FF04C04F5F83
S11304505F4F6F4F7F4F9F5F983110F3E0E0F4E000
S1130460848188608483CB01BA0180582481277FEA
S1130470248308951F920F920FB60F9211240BB686
S11304800F922F933F934F935F936F937F938F9329
S11304909F93AF93BF93EF93FF9380914904882375
S11304A0D4F48091AA409091AB40892B49F01092EA
S11304B0AA401092AB4080E090E40E94CC0106C0B8
S11304C081E090E08093AA409093AB40E0E4F4E0B4
S11304D0818580688187FF91EF91BF91AF919F9152
S11304E08F917F916F915F914F913F912F910F90D9
S11304F00BBE0F900FBE0F901F901895CF93DF93F4
S1130500C0917040D0917140CC33D105A9F4609171
S113051068407091694080916A4090916B4020E0FE
S113052030E041EE54E40E94EC0418162CF484E507
S113053090E40E94CC0116C06497A1F460916840D5
S11305407091694080916A4090916B4020E030E85E
S113055049E854E40E94EC04181624F484E590E479
S11305600E94CC01DF91CF910895789480E895E2C0
S11305700E949A010E947E02E0E0F4E0808180679C
S1130580808380818B7F80838081886080830E94C8
S113059002020E94ED0187EE93E00197F1F700C09B
S11305A000000E94020263567145804891090E942E
S11305B03A0428EF35ED48E15CE30E94F1046B0155
S11305C07C0160936C4070936D4080936E40909377
S11305D06F40C1E0D0E015C0A7019601609168406A
S11305E07091694080916A4090916B400E9426030B
S11305F0609368407093694080936A4090936B4025
S11306002196C333D10544F36091684070916940E9
S113061080916A4090916B4020E030E048E452E4DD
S11306200E94920320E030E84AE953E40E94250343
S1130630609368407093694080936A4090936B40E4
S113064042E050E00E94F801A2CF5058BB27AA27ED
S11306500E943D030C94B2040E94A40438F00E944A
S1130660AB0420F039F49F3F19F426F40C94A10450
S11306700EF4E095E7FB0C949B04E92F0E94C3045D
S113068058F3BA17620773078407950720F079F4C3
S1130690A6F50C94E5040EF4E0950B2EBA2FA02DCC
S11306A00B01B90190010C01CA01A0011124FF271B
S11306B0591B99F0593F50F4503E68F11A16F04016
S11306C0A22F232F342F4427585FF3CF4695379515
S11306D02795A795F0405395C9F77EF41F16BA0BDA
S11306E0620B730B840BBAF09150A1F0FF0FBB1F88
S11306F0661F771F881FC2F70EC0BA0F621F731FD1
S1130700841F48F4879577956795B795F7959E3F2D
S113071008F0B0CF9395880F08F09927EE0F9795BE
S1130720879508950E94A6030C94B2040E94AB041A
S113073058F00E94A40440F029F45F3F29F00C947F
S11307409B0451110C94E6040C94A1040E94C3046C
S113075068F39923B1F3552391F3951B550BBB27EC
S1130760AA2762177307840738F09F5F5F4F220F31
S1130770331F441FAA1FA9F335D00E2E3AF0E0E828
S113078032D091505040E695001CCAF72BD0FE2F72
S113079029D0660F771F881FBB1F26173707480706
S11307A0AB07B0E809F0BB0B802DBF01FF279358BE
S11307B05F4F3AF09E3F510578F00C949B040C94E3
S11307C0E6045F3FE4F3983ED4F386957795679506
S11307D0B795F7959F5FC9F7880F911D96958795F3
S11307E097F90895E1E0660F771F881FBB1F621712
S11307F073078407BA0720F0621B730B840BBA0BD0
S1130800EE1F88F7E09508950E940B046894B111D7
S11308100C94E60408950E94CB0488F09F5798F046
S1130820B92F9927B751B0F0E1F0660F771F881FF1
S1130830991F1AF0BA95C9F714C0B13091F00E940B
S1130840E504B1E008950C94E504672F782F882718
S1130850B85F39F0B93FCCF3869577956795B39532
S1130860D9F73EF490958095709561957F4F8F4FA1
S11308709F4F0895E89409C097FB3EF490958095A6
S1130880709561957F4F8F4F9F4F9923A9F0F92F52
S113089096E9BB279395F695879577956795B795D0
S11308A0F111F8CFFAF4BB0F11F460FF1BC06F5FB6
S11308B07F4F8F4F9F4F16C0882311F096E911C0C8
S11308C0772321F09EE8872F762F05C0662371F0E9
S11308D096E8862F70E060E02AF09A95660F771FFD
S11308E0881FDAF7880F9695879597F90895990FD9
S11308F00008550FAA0BE0E8FEEF16161706E807E6
S1130900F907C0F012161306E407F50798F0621B06
S1130910730B840B950B39F40A2661F0232B242BDB
S1130920252B21F408950A2609F4A140A6958FEFFA
S1130930811D811D089597F99F6780E870E060E04C
S113094008959FEF80EC089500240A941616170664
S113095018060906089500240A94121613061406AC
S113096005060895092E0394000C11F4882352F00F
S1130970BB0F40F4BF2B11F460FF04C06F5F7F4FC7
S11309808F4F9F4F089557FD9058440F551F59F0AE
S11309905F3F71F04795880F97FB991F61F09F3F68
S11309A079F087950895121613061406551FF2CF91
S11309B04695F1DF08C0161617061806991FF1CFE1
S11309C086957105610508940895E894BB27662708
S11309D07727CB0197F908950E94770408F48FEFE5
S11309E008950E9404050C94B2040E94A40438F0F3
S11309F00E94AB0420F0952311F00C949B040C94FA
S1130A00A10411240C94E6040E94C30470F3959F7E
S1130A10C1F3950F50E0551F629FF001729FBB27F1
S1130A20F00DB11D639FAA27F00DB11DAA1F649F8D
S1130A306627B00DA11D661F829F2227B00DA11D40
S1130A40621F739FB00DA11D621F839FA00D611DC6
S1130A50221F749F3327A00D611D231F849F600DE7
S1130A60211D822F762F6A2F11249F5750409AF010
S1130A70F1F088234AF0EE0FFF1FBB1F661F771F9C
S1130A80881F91505040A9F79E3F510580F00C9467
S1130A909B040C94E6045F3FE4F3983ED4F38695FC
S1130AA077956795B795F795E7959F5FC1F7FE2B07
S1130AB0880F911D9695879597F90895FA01EE0F81
S1130AC0FF1F309621053105A1F16115710561F40F
S1130AD08038BFE39B0749F168949038810561F041
S1130AE08038BFEF9B0741F099234AF5FF3FE105AA
S1130AF03105210519F1E8940894E795D901AA2351
S1130B0029F4AB2FBE2FF85FD0F310C0FF5F70F451
S1130B10A695E0F7F73950F019F0FF3A38F49F77CB
S1130B209F930DD00F9007FC9058089546F00C94B5
S1130B30A10460E070E080E89FE308954FE79F77A9
S1130B405F934F933F932F930E9459062F913F91A8
S1130B504F915F910E94F1040C94B60529F416F0AC
S1130B600C949B040C94E5040C94A1040E94CB0403
S1130B70A8F39638A0F707F80F92E8942BE33AEA23
S1130B8048EB5FE70E9407050F920F920F924DB753
S1130B905EB70F920E94A106E0E0F1E00E94E80532
S1130BA04F915F91EF91FF91E595EE1FFF1F49F083
S1130BB0FE57E0684427EE0F441FFA95E1F741958C
S1130BC0550B0E941B060F9007FE0C940F06089508
S1130BD0DF93CF931F930F93FF92EF92DF927B01EA
S1130BE08C01689406C0DA2EEF010E940405FE0110
S1130BF0E894A5912591359145915591A6F3EF017E
S1130C000E943D03FE019701A801DA9469F7DF9081
S1130C10EF90FF900F911F91CF91DF9108959B0169
S1130C20AC0160E070E080E89FE30C9492030C94C4
S1130C309B040C94D5060E94CB04D8F39923C9F3E2
S1130C40940F511DA3F39150504094F059F0882310
S1130C5032F0660F771F881F91505040C1F79E3FB6
S1130C6051052CF7880F911D9695879597F908954E
S1130C705F3FACF0983E9CF0BB27869577956795CF
S1130C80B79508F4B1609395C1F7BB0F58F711F409
S1130C9060FFE8CF6F5F7F4F8F4F9F4FE3CF0C9480
S1130CA0E60416F00C94D5060C94A10468940C94F4
S1130CB09B040E94CB04A8F39923C1F3AEF3DF9302
S1130CC0CF931F930F93FF92C92FDD2788232AF018
S1130CD02197660F771F881FDAF720E030E040E89D
S1130CE05FEB9FE3883920F0803E38F021968F77C0
S1130CF00E942603E8E2F1E004C00E942603E5E531
S1130D00F1E00E94E8058B01BE01EC01FB2E6F5758
S1130D1071097595771F880B990B0E943C0428E193
S1130D2032E741E35FE30E940405AF2D9801AE0171
S1130D30FF900F911F91CF91DF910E943D030C947E
S1130D40B204FA01DC01AA0FBB1F9B01AC01BF571F
S1130D5028F4222733274427507820C0B75190F431
S1130D60AB2F0024469537952795011CA395D2F304
S1130D70002071F0220F331F441FB395DAF30ED015
S1130D800C94250361307105A0E88A07B94630F454
S1130D909B01AC016627772788279078309621F04D
S1130DA0208331834283538308959F3F31F09150D0
S1130DB020F4879577956795B795880F911D96953B
S1130DC0879597F90895052E97FB1EF400940E94C9
S1130DD0FA0657FD07D00E94020707FC03D04EF421
S1130DE00C94FA0650954095309521953F4F4F4FFE
S1130DF05F4F089590958095709561957F4F8F4FC3
S1130E009F4F0895A1E21A2EAA1BBB1BFD010DC022
S1130E10AA1FBB1FEE1FFF1FA217B307E407F507A6
S1130E2020F0A21BB30BE40BF50B661F771F881F82
S1130E30991F1A9469F760957095809590959B0118
S10F0E40AC01BD01CF010895F894FFCF70
S1130E4C57616974696E6720666F72205379726991
S1130E5C6E67650A0035204D4C20646574656374B7
S1130E6C65640A003130204D4C20646574656374EC
S1130E7C65640A003230204D6C20646574656374BB
S1130E8C65640A003630204D6C20646574656374A7
S1130E9C65640A006F63636C7573696F6E5F646578
S10B0EAC7465637465640000C1
S9030000FC
