:100000000C94C1000C94E0000C94E0000C94E0000F
:100010000C94E0000C94E0000C94E0000C94E000E0
:100020000C94E0000C94E0000C94E0000C94E000D0
:100030000C94E0000C94E0000C94E0000C94E000C0
:100040000C94E0000C94E0000C94E0000C94E000B0
:100050000C94E0000C94E0000C94E0000C94E000A0
:100060000C94E0000C94E0000C94E0000C94E00090
:100070000C94E0000C9419030C94E0000C94E00044
:100080000C94E0000C94E0000C94E0000C94E00070
:100090000C94E0000C94E0000C94E0000C94E00060
:1000A0000C94E0000C94E0000C94E0000C94E00050
:1000B0000C94E0000C94E0000C94E0000C94E00040
:1000C0000C94E0000C94E0000C94E0000C94E00030
:1000D0000C94E0000C94E0000C94E0000C94E00020
:1000E0000C94E0000C94E0000C94E0000C94E00010
:1000F0000C94E0000C94E0000C94E0000C94E00000
:1001000007634236B79BD8A71A39685618AEBAAB00
:10011000558C1D3CB7CC5763BD6DEDFD753EF61794
:100120007231BF000000803F08000000BE922449E9
:10013000123EABAAAA2ABECDCCCC4C3E0000008019
:10014000BEABAAAAAA3E00000000BF000000803F8C
:100150000000000000084178D3BB4387D1133D194C
:100160000E3CC3BD4282AD2B3E68EC8276BED98F79
:10017000E1A93E4C80EFFFBE01C4FF7F3F000000BD
:10018000000011241FBECFEFCDBFDFE7DEBF10E4BC
:10019000A0E0B0E4E4E3F1E100E00BBF02C00790AF
:1001A0000D92A836B107D9F720E4A8E6B0E401C063
:1001B0001D92A43BB207E1F70E9474040C949808C6
:1001C0000C9400006150710920E030E00EC0DC01A9
:1001D000A20FB31F4C91FC01E60FF71F50815C93F7
:1001E00040832F5F3F4F61507109261737077CF31B
:1001F0000895CF92DF92EF92FF920F931F93CF93C8
:10020000DF938A016901C0E0D0E011C07801EC0EF3
:10021000FD1E2AE030E040E050E00E945708605D9B
:10022000F7016083622F732F842F952F219661151C
:1002300071058105910551F706C0F801EC0FFD1F0E
:1002400080E380832196CC15DD05BCF3BE01C80197
:100250000E94E200F801EC0FFD1F1082CE01DF9139
:10026000CF911F910F91FF90EF90DF90CF90089565
:100270008F929F92AF92BF92CF92DF92EF92FF92B6
:100280000F931F93CF93DF934B015C018A01E90128
:100290000E9478056B01770FEE08FF08C701B601D1
:1002A0000E94B0059B01AC01C501B4010E949404F9
:1002B0004B015C0120E030E0A801C701B6010E94BB
:1002C000F9007C01209749F1F801E80FF91F8EE24F
:1002D0008083BE010D2E000C880B990B0E94B00587
:1002E0009B01AC0160E070E080E291E40E94D206E4
:1002F0009B01AC01C501B4010E9465062FEFE21A13
:10030000F20A0E947805A8014E0D5F1D072E000C11
:10031000880B990B9E010E94F900DF91CF911F91EC
:100320000F91FF90EF90DF90CF90BF90AF909F9094
:100330008F900895E0E4F4E020812D7F20832081D8
:1003400021602083BC0180E090E00E94AE0520E0A7
:1003500030E040E851E40E9465069B01AC0160E09A
:1003600074E284E79DE40E94060520E030E040E06E
:100370005FE30E9495040E947F05E0E2F8E0608759
:1003800071878681806C868308959091240895FFFB
:10039000FCCF8093220808950F931F93CF93DF9390
:1003A0008C01C0E0D0E007C0F801EC0FFD1F808198
:1003B0000E94C5012196F80101900020E9F73197CC
:1003C000E01BF10BCE17DF0778F38AE00E94C5012E
:1003D000DF91CF911F910F91089520E030E040E828
:1003E00050E40E94F90080E890E40E94CC01089556
:1003F0009A0140E850E40E94380180E890E40E94AD
:10040000CC01089585E88093A000E0E0F6E081E06B
:1004100082838083089581E080930A060895809303
:1004200008060E940B0280910D0680FFFCCF809190
:100430001006909111060895E0E0F4E08481877F32
:1004400084838091080482FDFCCF90E040E050E07E
:10045000BA011CC0E0E0F4E084818860848326E077
:100460002A95F1F700C0440F551F661F771F84813E
:10047000877F848386E08A95F1F700C0808582FFBC
:1004800004C04F5F5F4F6F4F7F4F9F5F983110F3F6
:10049000E0E0F4E0848188608483CB01BA01805875
:1004A0002481277F24830895E0E8F4E0848180613B
:1004B000848387EE93E00197F1F700C00000848108
:1004C0008F7E848387EE93E00197F1F700C00000F0
:1004D0000895CF92DF92EF92FF92CF93DF93C1E026
:1004E000D0E020C083E00E940F028093B24090933E
:1004F000B340BC01990F880B990B0E94B005209165
:100500007C4030917D4040917E4050917F400E94E0
:10051000950460937C4070937D4080937E409093DF
:100520007F402196CB30D105ECF260917C407091F8
:100530007D4080917E4090917F4020E030E040E21D
:1005400051E40E94060560937C4070937D40809347
:100550007E4090937F402DEC35E04BE05CE30E94C1
:1005600065062CEB38EF46EF50E40E9495046B01D2
:100570007C016093724070937340809374409093B9
:10058000754020E030E048EE51E40E946006181605
:100590005CF480E090E40E94CC018CE390E08093D6
:1005A0007A4090937B403EC020E030E048EB51E43D
:1005B000C701B6010E94010588235CF480E190E444
:1005C0000E94CC0184E190E080937A4090937B403C
:1005D00029C020E030E048E851E4C701B6010E949C
:1005E000010588235CF480E290E40E94CC018AE05B
:1005F00090E080937A4090937B4014C02AE939E9D7
:1006000049E451E4C701B6010E940105882354F46E
:1006100080E390E40E94CC0185E090E080937A40F2
:1006200090937B40DF91CF91FF90EF90DF90CF9040
:1006300008951F920F920FB60F9211240BB60F92CE
:100640002F933F934F935F936F937F938F939F93DA
:10065000AF93BF93EF93FF93809149048823ACF449
:1006600080916940882339F0109269408FE390E4CB
:100670000E94CC0105C081E080936940809368406E
:10068000E0E4F4E0818580688187FF91EF91BF917C
:10069000AF919F918F917F916F915F914F913F911A
:1006A0002F910F900BBE0F900FBE0F901F901895BB
:1006B0008091480488231CF01092694007C0809103
:1006C000480488231CF481E080936940609169406C
:1006D00070E080E090E00E94ED010895E0E0F4E039
:1006E00080818B7F8083808188608083A0E8B4E0F4
:1006F0008C9180638C93E0E2F4E080818C60808355
:1007000015968C911597806215968C9386818460DE
:100710008683858188608583E0E4F4E08789826050
:10072000878B0895CF92DF92EF92FF92CF93DF9362
:1007300010926E4010926F40109270401092714073
:10074000C0E0D0E033C00E941C020E94AE0523E648
:1007500031E540E05BE40E94940428EA35ED48E18D
:100760005CE30E9465066B017C0160936A407093B4
:100770006B4080936C4090936D4060916E4070919F
:100780006F4080917040909171400E94AE05A7012A
:1007900096010E9495040E947F0560936E407093BD
:1007A0006F4080937040909371402196C530D10581
:1007B00054F260916E4070916F40809170409091C2
:1007C00071400E94AE0520E030E040EA50E40E9413
:1007D000060520E030E040E253E40E949404609378
:1007E000764070937740809378409093794042E0D0
:1007F00050E00E94F80160917640709177408091BE
:10080000784090917940DF91CF91FF90EF90DF9009
:10081000CF90089520E030E00AC0E0E2F4E0858166
:10082000846085838581886085832F5F3F4F283270
:1008300031059CF30895CF92DF92EF92FF92CF9310
:10084000DF936B017C01C0917A40D0917B40CC3327
:10085000D10579F420E030E041EE54E40E946006D6
:1008600018163CF484E590E40E94CC010E940A042E
:1008700034C0C431D10579F420E030E849E854E4CB
:10088000C701B6010E94600618162CF484E590E4B6
:100890000E94CC0122C0CA30D10579F420E030E0BA
:1008A00048E454E4C701B6010E94600618162CF40F
:1008B00084E590E40E94CC0110C0259771F420E0FB
:1008C00030E04AEF53E4C701B6010E9460061816F3
:1008D00024F484E590E40E94CC01DF91CF91FF9055
:1008E000EF90DF90CF900895789480E895E20E9491
:1008F0009A010E9402020E946E030E945803809196
:1009000068408823E1F30E9454020E9469020E9419
:1009100092036091764070917740809178409091F9
:1009200079400E941B04EBCF5058BB27AA270E9496
:10093000AC040C9426060E94180638F00E941F068C
:1009400020F039F49F3F19F426F40C9415060EF4A8
:10095000E095E7FB0C940F06E92F0E94370658F349
:10096000BA17620773078407950720F079F4A6F594
:100970000C9459060EF4E0950B2EBA2FA02D0B0106
:10098000B90190010C01CA01A0011124FF27591BD4
:1009900099F0593F50F4503E68F11A16F040A22FDA
:1009A000232F342F4427585FF3CF4695379527954B
:1009B000A795F0405395C9F77EF41F16BA0B620B4A
:1009C000730B840BBAF09150A1F0FF0FBB1F661F91
:1009D000771F881FC2F70EC0BA0F621F731F841FD4
:1009E00048F4879577956795B795F7959E3F08F0FA
:1009F000B0CF9395880F08F09927EE0F97958795BC
:100A000008950E94EB0508F481E008950E941A05FC
:100A10000C9426060E941F0658F00E94180640F00B
:100A200029F45F3F29F00C940F0651110C945A06DB
:100A30000C9415060E94370668F39923B1F35523E9
:100A400091F3951B550BBB27AA27621773078407E1
:100A500038F09F5F5F4F220F331F441FAA1FA9F377
:100A600035D00E2E3AF0E0E832D091505040E69565
:100A7000001CCAF72BD0FE2F29D0660F771F881FC6
:100A8000BB1F261737074807AB07B0E809F0BB0BB9
:100A9000802DBF01FF2793585F4F3AF09E3F5105CD
:100AA00078F00C940F060C945A065F3FE4F3983EDE
:100AB000D4F3869577956795B795F7959F5FC9F7B6
:100AC000880F911D9695879597F90895E1E0660F37
:100AD000771F881FBB1F621773078407BA0720F0B0
:100AE000621B730B840BBA0BEE1F88F7E095089519
:100AF0000E947F056894B1110C945A0608950E94D3
:100B00003F0688F09F5798F0B92F9927B751B0F05A
:100B1000E1F0660F771F881F991F1AF0BA95C9F781
:100B200014C0B13091F00E945906B1E008950C94C0
:100B30005906672F782F8827B85F39F0B93FCCF373
:100B4000869577956795B395D9F73EF490958095FE
:100B5000709561957F4F8F4F9F4F0895E89409C01E
:100B600097FB3EF490958095709561957F4F8F4FE0
:100B70009F4F9923A9F0F92F96E9BB279395F695F6
:100B8000879577956795B795F111F8CFFAF4BB0F74
:100B900011F460FF1BC06F5F7F4F8F4F9F4F16C0D8
:100BA000882311F096E911C0772321F09EE8872F62
:100BB000762F05C0662371F096E8862F70E060E01E
:100BC0002AF09A95660F771F881FDAF7880F969597
:100BD000879597F90895990F0008550FAA0BE0E83B
:100BE000FEEF16161706E807F907C0F012161306EF
:100BF000E407F50798F0621B730B840B950B39F42F
:100C00000A2661F0232B242B252B21F408950A2694
:100C100009F4A140A6958FEF811D811D089597F9D4
:100C20009F6780E870E060E008959FEF80EC089592
:100C300000240A94161617061806090608950024BB
:100C40000A9412161306140605060895092E039435
:100C5000000C11F4882352F0BB0F40F4BF2B11F4A9
:100C600060FF04C06F5F7F4F8F4F9F4F089557FD08
:100C70009058440F551F59F05F3F71F04795880F0A
:100C800097FB991F61F09F3F79F0879508951216A1
:100C900013061406551FF2CF4695F1DF08C016164D
:100CA00017061806991FF1CF8695710561050894FE
:100CB0000895E894BB2766277727CB0197F9089515
:100CC0000E94EB0508F48FEF08950E9478060C94BB
:100CD00026060E94180638F00E941F0620F0952371
:100CE00011F00C940F060C94150611240C945A065E
:100CF0000E94370670F3959FC1F3950F50E0551F82
:100D0000629FF001729FBB27F00DB11D639FAA2760
:100D1000F00DB11DAA1F649F6627B00DA11D661FAF
:100D2000829F2227B00DA11D621F739FB00DA11DD0
:100D3000621F839FA00D611D221F749F3327A00D8A
:100D4000611D231F849F600D211D822F762F6A2F26
:100D500011249F5750409AF0F1F088234AF0EE0F8B
:100D6000FF1FBB1F661F771F881F91505040A9F7B8
:100D70009E3F510580F00C940F060C945A065F3F7D
:100D8000E4F3983ED4F3869577956795B795F795F4
:100D9000E7959F5FC1F7FE2B880F911D969587956C
:100DA00097F90895FA01EE0FFF1F309621053105DE
:100DB000A1F16115710561F48038BFE39B0749F12A
:100DC00068949038810561F08038BFEF9B0741F04F
:100DD00099234AF5FF3FE1053105210519F1E89412
:100DE0000894E795D901AA2329F4AB2FBE2FF85F09
:100DF000D0F310C0FF5F70F4A695E0F7F73950F01C
:100E000019F0FF3A38F49F779F930DD00F9007FCAD
:100E10009058089546F00C94150660E070E080E864
:100E20009FE308954FE79F775F934F933F932F93EF
:100E30000E94CD072F913F914F915F910E946506CF
:100E40000C942A0729F416F00C940F060C945906FA
:100E50000C9415060E943F06A8F39638A0F707F8F1
:100E60000F92E8942BE33AEA48EB5FE70E947B0697
:100E70000F920F920F924DB75EB70F920E94150816
:100E8000E0E0F1E00E945C074F915F91EF91FF91EC
:100E9000E595EE1FFF1F49F0FE57E0684427EE0F6F
:100EA000441FFA95E1F74195550B0E948F070F906B
:100EB00007FE0C9483070895DF93CF931F930F933E
:100EC000FF92EF92DF927B018C01689406C0DA2ECC
:100ED000EF010E947806FE01E894A59125913591D5
:100EE00045915591A6F3EF010E94AC04FE019701D4
:100EF000A801DA9469F7DF90EF90FF900F911F91AE
:100F0000CF91DF9108959B01AC0160E070E080E833
:100F10009FE30C9406050C940F060C9449080E945C
:100F20003F06D8F39923C9F3940F511DA3F39150B1
:100F3000504094F059F0882332F0660F771F881FD5
:100F400091505040C1F79E3F51052CF7880F911DDD
:100F50009695879597F908955F3FACF0983E9CF081
:100F6000BB27869577956795B79508F4B1609395FB
:100F7000C1F7BB0F58F711F460FFE8CF6F5F7F4FE9
:100F80008F4F9F4FE3CF0C945A0616F00C944908EC
:100F90000C94150668940C940F060E943F06A8F363
:100FA0009923C1F3AEF3DF93CF931F930F93FF9277
:100FB000C92FDD2788232AF02197660F771F881F06
:100FC000DAF720E030E040E85FEB9FE3883920F07B
:100FD000803E38F021968F770E949504E8E2F1E098
:100FE00004C00E949504E5E5F1E00E945C078B01D6
:100FF000BE01EC01FB2E6F5771097595771F880BA9
:10100000990B0E94B00528E132E741E35FE30E94BB
:101010007806AF2D9801AE01FF900F911F91CF91EF
:10102000DF910E94AC040C942606FA01DC01AA0FA1
:10103000BB1F9B01AC01BF5728F42227332744274D
:10104000507820C0B75190F4AB2F002446953795C7
:101050002795011CA395D2F3002071F0220F331FB6
:10106000441FB395DAF30ED00C94940461307105EB
:10107000A0E88A07B94630F49B01AC0166277727C0
:1010800088279078309621F02083318342835383E0
:1010900008959F3F31F0915020F48795779567959B
:1010A000B795880F911D9695879597F90895052E08
:1010B00097FB1EF400940E946E0857FD07D00E9413
:1010C000760807FC03D04EF40C946E0850954095BA
:1010D000309521953F4F4F4F5F4F089590958095E4
:1010E000709561957F4F8F4F9F4F0895A1E21A2E03
:1010F000AA1BBB1BFD010DC0AA1FBB1FEE1FFF1FBC
:10110000A217B307E407F50720F0A21BB30BE40B0B
:10111000F50B661F771F881F991F1A9469F7609552
:101120007095809590959B01AC01BD01CF0108950C
:04113000F894FFCF61
:101134003630204D4C2064657465637465640A0020
:101144003230204D4C2064657465637465640A0014
:101154003130204D6C2064657465637465640A00E5
:1011640035204D6C2064657465637465640A0057AA
:10117400616974696E6720666F7220537972696E53
:1011840067650A006F63636C7573696F6E5F64658E
:081194007465637465640000DA
:00000001FF
