:100000000C94C1000C94E0000C94E0000C94E0000F
:100010000C94E0000C94E0000C94E0000C94E000E0
:100020000C94E0000C94E0000C94E0000C94E000D0
:100030000C94E0000C94E0000C94E0000C94E000C0
:100040000C94E0000C94E0000C94E0000C94E000B0
:100050000C94E0000C94E0000C94E0000C94E000A0
:100060000C94E0000C94E0000C94E0000C94E00090
:100070000C94E0000C9402030C94E0000C94E0005B
:100080000C94E0000C94E0000C94E0000C94E00070
:100090000C94E0000C94E0000C94E0000C94E00060
:1000A0000C94E0000C94E0000C94E0000C94E00050
:1000B0000C94E0000C94E0000C94E0000C94E00040
:1000C0000C94E0000C94E0000C94E0000C94E00030
:1000D0000C94E0000C94E0000C94E0000C94E00020
:1000E0000C94E0000C94E0000C94E0000C94E00010
:1000F0000C94E0000C94E0000C94E0000C94E00000
:1001000007634236B79BD8A71A39685618AEBAAB00
:10011000558C1D3CB7CC5763BD6DEDFD753EF61794
:100120007231BF000000803F08000000BE922449E9
:10013000123EABAAAA2ABECDCCCC4C3E0000008019
:10014000BEABAAAAAA3E00000000BF000000803F8C
:100150000000000000084178D3BB4387D1133D194C
:100160000E3CC3BD4282AD2B3E68EC8276BED98F79
:10017000E1A93E4C80EFFFBE01C4FF7F3F000000BD
:10018000000011241FBECFEFCDBFDFE7DEBF10E4BC
:10019000A0E0B0E4E0E7F1E100E00BBF02C00790AF
:1001A0000D92A038B107D9F720E4A0E8B0E401C06F
:1001B0001D92AC3CB207E1F70E9423040C94B608F0
:1001C0000C9400006150710920E030E00EC0DC01A9
:1001D000A20FB31F4C91FC01E60FF71F50815C93F7
:1001E00040832F5F3F4F61507109261737077CF31B
:1001F0000895CF92DF92EF92FF920F931F93CF93C8
:10020000DF938A016901C0E0D0E011C07801EC0EF3
:10021000FD1E2AE030E040E050E00E941408605DDE
:10022000F7016083622F732F842F952F219661151C
:1002300071058105910551F706C0F801EC0FFD1F0E
:1002400080E380832196CC15DD05BCF3BE01C80197
:100250000E94E200F801EC0FFD1F1082CE01DF9139
:10026000CF911F910F91FF90EF90DF90CF90089565
:100270008F929F92AF92BF92CF92DF92EF92FF92B6
:100280000F931F93CF93DF934B015C018A01E90128
:100290000E9435056B01770FEE08FF08C701B60114
:1002A0000E946D059B01AC01C501B4010E9451047F
:1002B0004B015C0120E030E0A801C701B6010E94BB
:1002C000F9007C01209749F1F801E80FF91F8EE24F
:1002D0008083BE010D2E000C880B990B0E946D05CA
:1002E0009B01AC0160E070E080E291E40E948F0627
:1002F0009B01AC01C501B4010E9422062FEFE21A56
:10030000F20A0E943505A8014E0D5F1D072E000C54
:10031000880B990B9E010E94F900DF91CF911F91EC
:100320000F91FF90EF90DF90CF90BF90AF909F9094
:100330008F900895E0E4F4E020812D7F20832081D8
:1003400021602083BC0180E090E00E946B0520E0EA
:1003500030E040E851E40E9422069B01AC0160E0DD
:1003600074E284E79DE40E94C30420E030E040E0B2
:100370005FE30E9452040E943C05E0E2F8E06087DF
:1003800071878681806C868308959091240895FFFB
:10039000FCCF8093220808950F931F93CF93DF9390
:1003A0008C01C0E0D0E007C0F801EC0FFD1F808198
:1003B0000E94C5012196F80101900020E9F73197CC
:1003C000E01BF10BCE17DF0778F38AE00E94C5012E
:1003D000DF91CF911F910F91089520E030E048E91F
:1003E00050E40E94F90088E990E40E94CC0108954D
:1003F0009A0148E950E40E94380188E990E40E949B
:10040000CC01089585E88093A000E0E0F6E081E06B
:1004100082838083089581E080930A060895809303
:1004200008060E940B0280910D0680FFFCCF809190
:100430001006909111060895E0E0F4E08481877F32
:1004400084838091080482FDFCCF90E040E050E07E
:10045000BA011CC0E0E0F4E084818860848326E077
:100460002A95F1F700C0440F551F661F771F84813E
:10047000877F848386E08A95F1F700C0808582FFBC
:1004800004C04F5F5F4F6F4F7F4F9F5F983110F3F6
:10049000E0E0F4E0848188608483CB01BA01805875
:1004A0002481277F24830895E0E0F4E0868180643E
:1004B00086838581806185838FE19EE40197F1F7D2
:1004C00000C000008681806186838FE19EE40197F1
:1004D000F1F700C000000895CF92DF92EF92FF92F3
:1004E000CF93DF93C1E0D0E020C083E00E940F02F1
:1004F0008093CA409093CB40BC01990F880B990B15
:100500000E946D0520919440309195404091964015
:10051000509197400E94520460939440709395408C
:1005200080939640909397402196CB30D105ECF282
:100530006091944070919540809196409091974041
:1005400020E030E040E251E40E94C3046093944014
:100550007093954080939640909397402DEC35E0B2
:100560004BE05CE30E9422062CEB38EF46EF50E4B0
:100570000E9452046B017C0142E050E00E94F801AD
:1005800020E030E048EE51E4C701B6010E941D06AC
:1005900018162CF480E090E40E94CC012CC020E0DE
:1005A00030E048EB51E4C701B6010E94BE04882345
:1005B0002CF480E190E40E94CC011DC020E030E0EA
:1005C00048E851E4C701B6010E94BE0488232CF418
:1005D00080E290E40E94CC010EC02AE939E949E4A6
:1005E00051E4C701B6010E94BE04882324F480E3CD
:1005F00090E40E94CC01DF91CF91FF90EF90DF90CB
:10060000CF9008951F920F920FB60F9211240BB640
:100610000F922F933F934F935F936F937F938F939B
:100620009F93AF93BF93EF93FF93809149048823E7
:10063000BCF480918140882339F0109281408FE38F
:1006400090E40E94CC0107C081E08093814084E562
:1006500090E40E94CC01E0E4F4E081858068818729
:10066000FF91EF91BF91AF919F918F917F916F918A
:100670005F914F913F912F910F900BBE0F900FBE46
:100680000F901F9018958091480488231CF41092B5
:10069000814007C08091480488231CF081E080934A
:1006A00081406091814070E080E090E00E94ED0127
:1006B000089520918240309183402C33310549F4D4
:1006C000893047E094072CF087E690E40E94CC0143
:1006D00008952431310549F48D3444E094072CF019
:1006E00087E690E40E94CC0108952A30310549F450
:1006F000813243E094072CF087E690E40E94CC011D
:1007000008952530310539F4853F914024F087E67E
:1007100090E40E94CC010895E0E0F4E080818065DF
:10072000808380818B7F8083808188608083E0E408
:10073000F4E087898160878B08958F929F92AF92B2
:10074000BF92CF92DF92EF92FF920F93CF93DF93FE
:10075000C0E0D0E031C00E941C026954724780485A
:1007600091090E946B0528EA35ED48E15CE30E949F
:1007700022066B017C0160938440709385408093D6
:100780008640909387406091884070918940809125
:100790008A4090918B400E946B05A70196010E94B0
:1007A00052040E943C056093884070938940809376
:1007B0008A4090938B402196C530D10564F26091B8
:1007C00088407091894080918A4090918B402DECB7
:1007D0003CEC4CEC5CEC0E94330800E20E946008A8
:1007E000822E932EA42EB52EC501B4019695879521
:1007F0007795679596958795779567950E946B0590
:100800006093904070939140809392409093934076
:1008100042E050E00E94F801609190407091914058
:1008200080919240909193400E943505CB01DF91D9
:10083000CF910F91FF90EF90DF90CF90BF90AF904E
:100840009F908F900895789480E895E20E949A0195
:100850000E9402020E948C030E9443038AE790E4F4
:100860000E94CC010E94540280918040882361F054
:1008700060918C4070918D4080918E4090918F401E
:100880000E946C02109280400E949D0360919040F3
:100890007091914080919240909193400E945903B1
:1008A000DDCF5058BB27AA270E9469040C94E305AA
:1008B0000E94D50538F00E94DC0520F039F49F3FF6
:1008C00019F426F40C94D2050EF4E095E7FB0C9491
:1008D000CC05E92F0E94F40558F3BA176207730795
:1008E0008407950720F079F4A6F50C9416060EF40B
:1008F000E0950B2EBA2FA02D0B01B90190010C0130
:10090000CA01A0011124FF27591B99F0593F50F447
:10091000503E68F11A16F040A22F232F342F44279F
:10092000585FF3CF469537952795A795F040539597
:10093000C9F77EF41F16BA0B620B730B840BBAF067
:100940009150A1F0FF0FBB1F661F771F881FC2F7D2
:100950000EC0BA0F621F731F841F48F487957795E6
:100960006795B795F7959E3F08F0B0CF9395880FA0
:1009700008F09927EE0F9795879508950E94A8058E
:1009800008F481E008950E94D7040C94E3050E94C6
:10099000DC0558F00E94D50540F029F45F3F29F0AE
:1009A0000C94CC0551110C9417060C94D2050E949E
:1009B000F40568F39923B1F3552391F3951B550B77
:1009C000BB27AA2762177307840738F09F5F5F4F22
:1009D000220F331F441FAA1FA9F335D00E2E3AF061
:1009E000E0E832D091505040E695001CCAF72BD079
:1009F000FE2F29D0660F771F881FBB1F26173707CA
:100A00004807AB07B0E809F0BB0B802DBF01FF27FB
:100A100093585F4F3AF09E3F510578F00C94CC0507
:100A20000C9417065F3FE4F3983ED4F386957795D0
:100A30006795B795F7959F5FC9F7880F911D9695B4
:100A4000879597F90895E1E0660F771F881FBB1F10
:100A5000621773078407BA0720F0621B730B840BBD
:100A6000BA0BEE1F88F7E09508950E943C05689444
:100A7000B1110C94170608950E94FC0588F09F5749
:100A800098F0B92F9927B751B0F0E1F0660F771FB2
:100A9000881F991F1AF0BA95C9F714C0B13091F0A8
:100AA0000E941606B1E008950C941606672F782F61
:100AB0008827B85F39F0B93FCCF38695779567956D
:100AC000B395D9F73EF490958095709561957F4FD9
:100AD0008F4F9F4F0895E89409C097FB3EF490957F
:100AE0008095709561957F4F8F4F9F4F9923A9F007
:100AF000F92F96E9BB279395F69587957795679596
:100B0000B795F111F8CFFAF4BB0F11F460FF1BC0D9
:100B10006F5F7F4F8F4F9F4F16C0882311F096E96C
:100B200011C0772321F09EE8872F762F05C066231A
:100B300071F096E8862F70E060E02AF09A95660FD3
:100B4000771F881FDAF7880F9695879597F908958C
:100B5000990F0008550FAA0BE0E8FEEF16161706CE
:100B6000E807F907C0F012161306E407F50798F036
:100B7000621B730B840B950B39F40A2661F0232B4F
:100B8000242B252B21F408950A2609F4A140A695CB
:100B90008FEF811D811D089597F99F6780E870E0B0
:100BA00060E008959FEF80EC089500240A941616E3
:100BB000170618060906089500240A94121613064B
:100BC000140605060895092E0394000C11F48823D9
:100BD00052F0BB0F40F4BF2B11F460FF04C06F5FF5
:100BE0007F4F8F4F9F4F089557FD9058440F551FCB
:100BF00059F05F3F71F04795880F97FB991F61F09F
:100C00009F3F79F087950895121613061406551F15
:100C1000F2CF4695F1DF08C0161617061806991F81
:100C2000F1CF86957105610508940895E894BB2776
:100C300066277727CB0197F908950E94A80508F445
:100C40008FEF08950E9435060C94E3050E94D505A8
:100C500038F00E94DC0520F0952311F00C94CC05AF
:100C60000C94D20511240C9417060E94F40570F31D
:100C7000959FC1F3950F50E0551F629FF001729F41
:100C8000BB27F00DB11D639FAA27F00DB11DAA1F50
:100C9000649F6627B00DA11D661F829F2227B00D9D
:100CA000A11D621F739FB00DA11D621F839FA00D28
:100CB000611D221F749F3327A00D611D231F849F78
:100CC000600D211D822F762F6A2F11249F575040CF
:100CD0009AF0F1F088234AF0EE0FFF1FBB1F661F4A
:100CE000771F881F91505040A9F79E3F510580F013
:100CF0000C94CC050C9417065F3FE4F3983ED4F3B4
:100D0000869577956795B795F795E7959F5FC1F7B6
:100D1000FE2B880F911D9695879597F90895FA01F6
:100D2000EE0FFF1F309621053105A1F16115710508
:100D300061F48038BFE39B0749F1689490388105DE
:100D400061F08038BFEF9B0741F099234AF5FF3FE0
:100D5000E1053105210519F1E8940894E795D901D9
:100D6000AA2329F4AB2FBE2FF85FD0F310C0FF5F8A
:100D700070F4A695E0F7F73950F019F0FF3A38F41F
:100D80009F779F930DD00F9007FC9058089546F0E1
:100D90000C94D20560E070E080E89FE308954FE78F
:100DA0009F775F934F933F932F930E948A072F91D2
:100DB0003F914F915F910E9422060C94E70629F41F
:100DC00016F00C94CC050C9416060C94D2050E94D7
:100DD000FC05A8F39638A0F707F80F92E8942BE3E8
:100DE0003AEA48EB5FE70E9438060F920F920F92A3
:100DF0004DB75EB70F920E94D207E0E0F1E00E948B
:100E000019074F915F91EF91FF91E595EE1FFF1F3D
:100E100049F0FE57E0684427EE0F441FFA95E1F7CA
:100E20004195550B0E944C070F9007FE0C9440070C
:100E30000895DF93CF931F930F93FF92EF92DF926A
:100E40007B018C01689406C0DA2EEF010E94350602
:100E5000FE01E894A5912591359145915591A6F310
:100E6000EF010E946904FE019701A801DA9469F775
:100E7000DF90EF90FF900F911F91CF91DF91089538
:100E80009B01AC0160E070E080E89FE30C94C30438
:100E90000C94CC050C9406080E94FC05D8F3992309
:100EA000C9F3940F511DA3F39150504094F059F0A1
:100EB000882332F0660F771F881F91505040C1F78A
:100EC0009E3F51052CF7880F911D9695879597F9B0
:100ED00008955F3FACF0983E9CF0BB2786957795D0
:100EE0006795B79508F4B1609395C1F7BB0F58F7B4
:100EF00011F460FFE8CF6F5F7F4F8F4F9F4FE3CFBD
:100F00000C94170616F00C9406080C94D2056894FD
:100F10000C94CC050E94FC05A8F39923C1F3AEF311
:100F2000DF93CF931F930F93FF92C92FDD27882361
:100F30002AF02197660F771F881FDAF720E030E04C
:100F400040E85FEB9FE3883920F0803E38F021963F
:100F50008F770E945204E8E2F1E004C00E9452043C
:100F6000E5E5F1E00E9419078B01BE01EC01FB2EC3
:100F70006F5771097595771F880B990B0E946D0546
:100F800028E132E741E35FE30E943506AF2D980187
:100F9000AE01FF900F911F91CF91DF910E946904E4
:100FA0000C94E305FA01DC01AA0FBB1F9B01AC0105
:100FB000BF5728F4222733274427507820C0B75141
:100FC00090F4AB2F0024469537952795011CA395E7
:100FD000D2F3002071F0220F331F441FB395DAF3D0
:100FE0000ED00C94510461307105A0E88A07B9460F
:100FF00030F49B01AC0166277727882790783096DC
:1010000021F0208331834283538308959F3F31F041
:10101000915020F4879577956795B795880F911D26
:101020009695879597F90895052E97FB1EF40094E1
:101030000E942B0857FD07D00E947C0807FC03D0B4
:101040004EF40C942B0850954095309521953F4FC8
:101050004F4F5F4F089590958095709561957F4FA4
:101060008F4F9F4F0895E894DF93CF93FC01DB01EE
:101070000E949E087F936F93E9019A01AC01BF9390
:10108000AF933F932F93DF010E949E0826F46C1BC1
:101090007D0B820B930B9E01EB01FC010E94AD08BE
:1010A000AF91BF912F913F910E94AD08BE01CF013A
:1010B000F9012F913F91CF91DF91089597FB10F89F
:1010C000169400080F93083098F00850232F342FFF
:1010D000452F562F672F782F892F902DF4CF059409
:1010E0009795879577956795579547953795279560
:1010F0000A95AAF70F910895A1E21A2EAA1BBB1B0D
:10110000FD010DC0AA1FBB1FEE1FFF1FA217B307D3
:10111000E407F50720F0A21BB30BE40BF50B661FE9
:10112000771F881F991F1A9469F7609570958095AD
:1011300090959B01AC01BD01CF010895A29FB00124
:10114000B39FC001A39F700D811D1124911DB29FFB
:10115000700D811D1124911D08950E949E08460F57
:10116000571FC81FD91F08F431960895F894FFCF70
:101170003630204D4C2064657465637465640A00E4
:101180003230204D4C2064657465637465640A00D8
:101190003130204D6C2064657465637465640A00A9
:1011A00035204D6C2064657465637465640A00576E
:1011B000616974696E6720666F7220537972696E17
:1011C00067650A00737972696E676520636F6E6E7A
:1011D00065637465640A006F63636C7573696F6E31
:1011E0005F6465746563746564006E6973730000A1
:00000001FF
