:100000000C94C1000C94E0000C94E0000C94E0000F
:100010000C94E0000C94E0000C94E0000C94E000E0
:100020000C94E0000C94E0000C94E0000C94E000D0
:100030000C94E0000C94E0000C94E0000C94E000C0
:100040000C94E0000C94E0000C94E0000C94E000B0
:100050000C94E0000C94E0000C94E0000C94E000A0
:100060000C94E0000C94E0000C94E0000C94E00090
:100070000C94E0000C9410030C94E0000C94E0004D
:100080000C94E0000C94E0000C94E0000C94E00070
:100090000C94E0000C94E0000C94E0000C94E00060
:1000A0000C94E0000C94E0000C94E0000C94E00050
:1000B0000C94E0000C94E0000C94E0000C94E00040
:1000C0000C94E0000C94E0000C94E0000C94E00030
:1000D0000C94E0000C94E0000C94E0000C94E00020
:1000E0000C94E0000C94E0000C94E0000C94E00010
:1000F0000C94E0000C94E0000C94E0000C94E00000
:1001000007634236B79BD8A71A39685618AEBAAB00
:10011000558C1D3CB7CC5763BD6DEDFD753EF61794
:100120007231BF000000803F08000000BE922449E9
:10013000123EABAAAA2ABECDCCCC4C3E0000008019
:10014000BEABAAAAAA3E00000000BF000000803F8C
:100150000000000000084178D3BB4387D1133D194C
:100160000E3CC3BD4282AD2B3E68EC8276BED98F79
:10017000E1A93E4C80EFFFBE01C4FF7F3F000000BD
:10018000000011241FBECFEFCDBFDFE7DEBF10E4BC
:10019000A0E0B0E4EAE9F1E100E00BBF02C00790A3
:1001A0000D92A836B107D9F720E4A8E6B0E401C063
:1001B0001D92A33BB207E1F70E944A040C94CB08BE
:1001C0000C9400006150710920E030E00EC0DC01A9
:1001D000A20FB31F4C91FC01E60FF71F50815C93F7
:1001E00040832F5F3F4F61507109261737077CF31B
:1001F0000895CF92DF92EF92FF920F931F93CF93C8
:10020000DF938A016901C0E0D0E011C07801EC0EF3
:10021000FD1E2AE030E040E050E00E942908605DC9
:10022000F7016083622F732F842F952F219661151C
:1002300071058105910551F706C0F801EC0FFD1F0E
:1002400080E380832196CC15DD05BCF3BE01C80197
:100250000E94E200F801EC0FFD1F1082CE01DF9139
:10026000CF911F910F91FF90EF90DF90CF90089565
:100270008F929F92AF92BF92CF92DF92EF92FF92B6
:100280000F931F93CF93DF934B015C018A01E90128
:100290000E944A056B01770FEE08FF08C701B601FF
:1002A0000E9482059B01AC01C501B4010E94660455
:1002B0004B015C0120E030E0A801C701B6010E94BB
:1002C000F9007C01209749F1F801E80FF91F8EE24F
:1002D0008083BE010D2E000C880B990B0E948205B5
:1002E0009B01AC0160E070E080E291E40E94A40612
:1002F0009B01AC01C501B4010E9437062FEFE21A41
:10030000F20A0E944A05A8014E0D5F1D072E000C3F
:10031000880B990B9E010E94F900DF91CF911F91EC
:100320000F91FF90EF90DF90CF90BF90AF909F9094
:100330008F900895E0E4F4E020812D7F20832081D8
:1003400021602083BC0180E090E00E94800520E0D5
:1003500030E040E851E40E9437069B01AC0160E0C8
:1003600074E284E79DE40E94D80420E030E040E09D
:100370005FE30E9467040E945105E0E2F8E06087B5
:1003800071878681806C868308959091240895FFFB
:10039000FCCF8093220808950F931F93CF93DF9390
:1003A0008C01C0E0D0E007C0F801EC0FFD1F808198
:1003B0000E94C5012196F80101900020E9F73197CC
:1003C000E01BF10BCE17DF0778F38AE00E94C5012E
:1003D000DF91CF911F910F91089520E030E04FE71A
:1003E00050E40E94F9008FE790E40E94CC01089548
:1003F0009A014FE750E40E9438018FE790E40E9491
:10040000CC01089585E88093A000E0E0F6E081E06B
:1004100082838083089581E080930A060895809303
:1004200008060E940B0280910D0680FFFCCF809190
:100430001006909111060895E0E0F4E08481877F32
:1004400084838091080482FDFCCF90E040E050E07E
:10045000BA011CC0E0E0F4E084818860848326E077
:100460002A95F1F700C0440F551F661F771F84813E
:10047000877F848386E08A95F1F700C0808582FFBC
:1004800004C04F5F5F4F6F4F7F4F9F5F983110F3F6
:10049000E0E0F4E0848188608483CB01BA01805875
:1004A0002481277F24830895E0E0F4E0868180643E
:1004B00086838581806185838FE19EE40197F1F7D2
:1004C00000C000008681806186838FE19EE40197F1
:1004D000F1F700C000000895CF92DF92EF92FF92F3
:1004E000CF93DF93C1E0D0E020C083E00E940F02F1
:1004F0008093B1409093B240BC01990F880B990B47
:100500000E94820520917B4030917C4040917D404B
:1005100050917E400E94670460937B4070937C40C2
:1005200080937D4090937E402196CB30D105ECF2B4
:1005300060917B4070917C4080917D4090917E40A5
:1005400020E030E040E251E40E94D80460937B4018
:1005500070937C4080937D4090937E402DEC35E0FD
:100560004BE05CE30E9437062CEB38EF46EF50E49B
:100570000E94670460937340709374408093754049
:100580009093764042E050E00E94F801C0907340A2
:10059000D0907440E0907540F090764020E030E0DC
:1005A00048EE51E4C701B6010E94320618162CF439
:1005B00080E090E40E94CC012CC020E030E048EBC9
:1005C00051E4C701B6010E94D30488232CF480E1D2
:1005D00090E40E94CC011DC020E030E048E851E4E6
:1005E000C701B6010E94D30488232CF480E290E472
:1005F0000E94CC010EC02AE939E949E451E4C7015F
:10060000B6010E94D304882324F480E390E40E947E
:10061000CC01DF91CF91FF90EF90DF90CF900895C4
:100620001F920F920FB60F9211240BB60F922F93B9
:100630003F934F935F936F937F938F939F93AF936A
:10064000BF93EF93FF93809149048823ACF480918A
:100650006840882339F0109268408FE390E40E944C
:10066000CC0105C081E0809368400E946C02E0E408
:10067000F4E0818580688187FF91EF91BF91AF9110
:100680009F918F917F916F915F914F913F912F91AA
:100690000F900BBE0F900FBE0F901F90189580917A
:1006A000480488231CF01092684007C080914804D9
:1006B00088231CF481E0809368406091684070E07A
:1006C00080E090E00E94ED010895CF92DF92EF92DA
:1006D000FF92CF93DF936B017C01C0916940D09171
:1006E0006A40CC33D10569F420E030E041EE54E4B7
:1006F0000E94320618162CF484E590E40E94CC0186
:1007000034C0C431D10579F420E030E849E854E43C
:10071000C701B6010E94320618162CF484E590E455
:100720000E94CC0122C0CA30D10579F420E030E02B
:1007300048E454E4C701B6010E94320618162CF4AE
:1007400084E590E40E94CC0110C0259771F420E06C
:1007500030E04AEF53E4C701B6010E943206181692
:1007600024F484E590E40E94CC01DF91CF91FF90C6
:10077000EF90DF90CF900895E0E0F4E08081806515
:10078000808380818B7F8083808188608083E0E4A8
:10079000F4E087898260878B08958F929F92AF9251
:1007A000BF92CF92DF92EF92FF920F93CF93DF939E
:1007B000C0E0D0E031C00E941C02695472478048FA
:1007C00091090E94800528EA35ED48E15CE30E942A
:1007D00037066B017C0160936B4070936C40809393
:1007E0006D4090936E4060916F4070917040809129
:1007F0007140909172400E948005A70196010E946D
:1008000067040E94510560936F407093704080931D
:100810007140909372402196C530D10564F2609189
:100820006F407091704080917140909172402DECBA
:100830003CEC4CEC5CEC0E94480800E20E9475081D
:10084000822E932EA42EB52EC501B40196958795C0
:100850007795679596958795779567950E9480051A
:100860006B017C0142E050E00E94F801C701B60133
:10087000DF91CF910F91FF90EF90DF90CF90BF90DD
:10088000AF909F908F900895E0E0F4E086818F7D97
:1008900086830895789480E895E20E949A010E94E8
:1008A00002020E94BC030E944F030E9454020E9455
:1008B000CD0360917740709178408091794090911C
:1008C0007A400E9465030E944404EFCF5058BB2732
:1008D000AA270E947E040C94F8050E94EA0538F0CD
:1008E0000E94F10520F039F49F3F19F426F40C948E
:1008F000E7050EF4E095E7FB0C94E105E92F0E9473
:10090000090658F3BA17620773078407950720F0A2
:1009100079F4A6F50C942B060EF4E0950B2EBA2F65
:10092000A02D0B01B90190010C01CA01A0011124F5
:10093000FF27591B99F0593F50F4503E68F11A16A1
:10094000F040A22F232F342F4427585FF3CF469532
:1009500037952795A795F0405395C9F77EF41F1654
:10096000BA0B620B730B840BBAF09150A1F0FF0F1E
:10097000BB1F661F771F881FC2F70EC0BA0F621F0A
:10098000731F841F48F4879577956795B795F795FA
:100990009E3F08F0B0CF9395880F08F09927EE0F8F
:1009A0009795879508950E94BD0508F481E0089504
:1009B0000E94EC040C94F8050E94F10558F00E9486
:1009C000EA0540F029F45F3F29F00C94E10551114C
:1009D0000C942C060C94E7050E94090668F39923F1
:1009E000B1F3552391F3951B550BBB27AA2762172B
:1009F0007307840738F09F5F5F4F220F331F441F38
:100A0000AA1FA9F335D00E2E3AF0E0E832D091506B
:100A10005040E695001CCAF72BD0FE2F29D0660F58
:100A2000771F881FBB1F261737074807AB07B0E89B
:100A300009F0BB0B802DBF01FF2793585F4F3AF0A1
:100A40009E3F510578F00C94E1050C942C065F3F15
:100A5000E4F3983ED4F3869577956795B795F79527
:100A60009F5FC9F7880F911D9695879597F908950F
:100A7000E1E0660F771F881FBB1F621773078407AB
:100A8000BA0720F0621B730B840BBA0BEE1F88F7BA
:100A9000E09508950E9451056894B1110C942C06BC
:100AA00008950E94110688F09F5798F0B92F992752
:100AB000B751B0F0E1F0660F771F881F991F1AF049
:100AC000BA95C9F714C0B13091F00E942B06B1E07D
:100AD00008950C942B06672F782F8827B85F39F07C
:100AE000B93FCCF3869577956795B395D9F73EF4E2
:100AF00090958095709561957F4F8F4F9F4F08958A
:100B0000E89409C097FB3EF49095809570956195A7
:100B10007F4F8F4F9F4F9923A9F0F92F96E9BB275D
:100B20009395F695879577956795B795F111F8CFD9
:100B3000FAF4BB0F11F460FF1BC06F5F7F4F8F4F44
:100B40009F4F16C0882311F096E911C0772321F03A
:100B50009EE8872F762F05C0662371F096E8862FD2
:100B600070E060E02AF09A95660F771F881FDAF729
:100B7000880F9695879597F90895990F0008550F56
:100B8000AA0BE0E8FEEF16161706E807F907C0F013
:100B900012161306E407F50798F0621B730B840B1B
:100BA000950B39F40A2661F0232B242B252B21F4F5
:100BB00008950A2609F4A140A6958FEF811D811D95
:100BC000089597F99F6780E870E060E008959FEFCF
:100BD00080EC089500240A941616170618060906D4
:100BE000089500240A9412161306140605060895A3
:100BF000092E0394000C11F4882352F0BB0F40F42B
:100C0000BF2B11F460FF04C06F5F7F4F8F4F9F4F6A
:100C1000089557FD9058440F551F59F05F3F71F0EC
:100C20004795880F97FB991F61F09F3F79F0879553
:100C30000895121613061406551FF2CF4695F1DFDC
:100C400008C0161617061806991FF1CF869571056C
:100C5000610508940895E894BB2766277727CB01A0
:100C600097F908950E94BD0508F48FEF08950E943A
:100C70004A060C94F8050E94EA0538F00E94F10536
:100C800020F0952311F00C94E1050C94E705112454
:100C90000C942C060E94090670F3959FC1F3950FE2
:100CA00050E0551F629FF001729FBB27F00DB11DF0
:100CB000639FAA27F00DB11DAA1F649F6627B00D80
:100CC000A11D661F829F2227B00DA11D621F739F69
:100CD000B00DA11D621F839FA00D611D221F749F77
:100CE0003327A00D611D231F849F600D211D822FBE
:100CF000762F6A2F11249F5750409AF0F1F08823E5
:100D00004AF0EE0FFF1FBB1F661F771F881F915011
:100D10005040A9F79E3F510580F00C94E1050C94DA
:100D20002C065F3FE4F3983ED4F38695779567955C
:100D3000B795F795E7959F5FC1F7FE2B880F911D3B
:100D40009695879597F90895FA01EE0FFF1F309653
:100D500021053105A1F16115710561F48038BFE30A
:100D60009B0749F168949038810561F08038BFEFA6
:100D70009B0741F099234AF5FF3FE1053105210525
:100D800019F1E8940894E795D901AA2329F4AB2F27
:100D9000BE2FF85FD0F310C0FF5F70F4A695E0F7A8
:100DA000F73950F019F0FF3A38F49F779F930DD040
:100DB0000F9007FC9058089546F00C94E70560E00A
:100DC00070E080E89FE308954FE79F775F934F932C
:100DD0003F932F930E949F072F913F914F915F91D7
:100DE0000E9437060C94FC0629F416F00C94E105D9
:100DF0000C942B060C94E7050E941106A8F3963874
:100E0000A0F707F80F92E8942BE33AEA48EB5FE784
:100E10000E944D060F920F920F924DB75EB70F9240
:100E20000E94E707E0E0F1E00E942E074F915F91FA
:100E3000EF91FF91E595EE1FFF1F49F0FE57E06827
:100E40004427EE0F441FFA95E1F74195550B0E9498
:100E500061070F9007FE0C9455070895DF93CF9319
:100E60001F930F93FF92EF92DF927B018C016894A6
:100E700006C0DA2EEF010E944A06FE01E894A59111
:100E80002591359145915591A6F3EF010E947E047D
:100E9000FE019701A801DA9469F7DF90EF90FF90C7
:100EA0000F911F91CF91DF9108959B01AC0160E0FC
:100EB00070E080E89FE30C94D8040C94E1050C9456
:100EC0001B080E941106D8F39923C9F3940F511DF2
:100ED000A3F39150504094F059F0882332F0660FFC
:100EE000771F881F91505040C1F79E3F51052CF746
:100EF000880F911D9695879597F908955F3FACF0FF
:100F0000983E9CF0BB27869577956795B79508F432
:100F1000B1609395C1F7BB0F58F711F460FFE8CFAC
:100F20006F5F7F4F8F4F9F4FE3CF0C942C0616F0CF
:100F30000C941B080C94E70568940C94E1050E943E
:100F40001106A8F39923C1F3AEF3DF93CF931F9358
:100F50000F93FF92C92FDD2788232AF02197660F70
:100F6000771F881FDAF720E030E040E85FEB9FE36F
:100F7000883920F0803E38F021968F770E946704F0
:100F8000E8E2F1E004C00E946704E5E5F1E00E94B8
:100F90002E078B01BE01EC01FB2E6F577109759571
:100FA000771F880B990B0E94820528E132E741E305
:100FB0005FE30E944A06AF2D9801AE01FF900F91AA
:100FC0001F91CF91DF910E947E040C94F805FA01E5
:100FD000DC01AA0FBB1F9B01AC01BF5728F42227DD
:100FE00033274427507820C0B75190F4AB2F00240A
:100FF000469537952795011CA395D2F3002071F0F3
:10100000220F331F441FB395DAF30ED00C946604FD
:1010100061307105A0E88A07B94630F49B01AC0144
:101020006627772788279078309621F020833183B0
:101030004283538308959F3F31F0915020F4879568
:1010400077956795B795880F911D9695879597F930
:101050000895052E97FB1EF400940E94400857FD4A
:1010600007D00E94910807FC03D04EF40C9440086E
:1010700050954095309521953F4F4F4F5F4F0895C4
:1010800090958095709561957F4F8F4F9F4F0895F4
:10109000E894DF93CF93FC01DB010E94B3087F93B8
:1010A0006F93E9019A01AC01BF93AF933F932F93E4
:1010B000DF010E94B30826F46C1B7D0B820B930B9F
:1010C0009E01EB01FC010E94C208AF91BF912F91DC
:1010D0003F910E94C208BE01CF01F9012F913F91BB
:1010E000CF91DF91089597FB10F8169400080F93A5
:1010F000083098F00850232F342F452F562F672F94
:10110000782F892F902DF4CF059497958795779513
:10111000679557954795379527950A95AAF70F91A3
:101120000895A1E21A2EAA1BBB1BFD010DC0AA1F28
:10113000BB1FEE1FFF1FA217B307E407F50720F040
:10114000A21BB30BE40BF50B661F771F881F991FBB
:101150001A9469F760957095809590959B01AC0104
:10116000BD01CF010895A29FB001B39FC001A39F0D
:10117000700D811D1124911DB29F700D811D1124D0
:10118000911D08950E94B308460F571FC81FD91F0D
:0A11900008F431960895F894FFCF9B
:10119A003630204D4C2064657465637465640A00BA
:1011AA003230204D4C2064657465637465640A00AE
:1011BA003130204D6C2064657465637465640A007F
:1011CA0035204D6C2064657465637465640A005744
:1011DA00616974696E6720666F7220537972696EED
:1011EA0067650A006F63636C7573696F6E5F646528
:0811FA00746563746564000074
:00000001FF
